:020000040000FA
:1000000000040020E508000079050000C508000094
:10001000830500008D05000097050000000000002A
:1000200000000000000000000000000009090000BE
:10003000A105000000000000AB050000B5050000B0
:10004000BF050000C9050000D3050000DD05000064
:10005000E7050000F1050000FB05000005060000B3
:100060000F06000019060000230600002D06000000
:1000700037060000410600004B0600005506000050
:100080005F06000069060000730600007D060000A0
:1000900087060000910600009B060000A5060000F0
:1000A000AF060000B9060000C3060000CD06000040
:1000B000D7060000E1060000EB060000F506000090
:1000C000FF06000009070000130700001D070000DD
:1000D00027070000310700003B070000450700002C
:1000E0004F07000059070000630700006D0700007C
:1000F00077070000810700008B07000095070000CC
:100100009F0700001FB500F003F88DE80F001FBD2A
:1001100000F0DEBB1FB56FF00100009040100390AF
:10012000029001904FF010208069000B420900F00E
:100130001F045DF822300120A04083434DF8223097
:10014000684600F044F91FBDF0B54FF6FF734FF459
:10015000B4751A466E1E11E0A94201D3344600E080
:100160000C46091B30F8027B641E3B441A44F9D14B
:100170009CB204EB134394B204EB12420029EBD17E
:1001800098B200EB134002EB124140EA0140F0BD8F
:10019000DD4992B00446D1E90001CDE91001FF220A
:1001A0004021684600F03AFB94E80F008DE80F000C
:1001B000684610A902E004C841F8042D8842FAD12B
:1001C00010216846FFF7C0FF1090AA208DF8440068
:1001D000FFF7A0FF00F0F2F84FF01024A069102202
:1001E0006946803000F001F9A069082210A900F0EA
:1001F000FCF800F0D7F84FF080510A6949690068AF
:100200004A43824201D8102070470020704710B541
:10021000D0E900214FF0805002EB8103026944696C
:100220006243934209D84FF01022536903EB8103D4
:100230000169406941438B4201D9092010BD5069D1
:10024000401C01D0002010BD0F2010BD70B501680A
:100250000446AE4D4FF01020062951D2DFE801F0E0
:10026000320318283B1DD4E90265646829463046EC
:1002700000F0CDF82A462146304600F0B6F8AA0034
:100280002146304600F09EFA002800D0032070BDC1
:1002900000F050FB4FF4805007E0201DFFF7ABFF4C
:1002A0000028F4D100F046FB60682860002070BD93
:1002B000241D94E80700920000F084FA0028F6D08C
:1002C0000E2070BD8069401C12D0201DFFF79FFFDB
:1002D0000028F6D109E08069401C09D0201DFFF7F5
:1002E0008AFF0028EDD1606820B12046FFF750FF5B
:1002F000042070BDFFF70EFF00F060F800F052F828
:10030000072070BD10B50C46182802D001200860E7
:1003100010BD2068FFF79AFF206010BD4FF0102439
:10032000A069401C05D0A569A66980353079AA2846
:1003300008D06069401C2DD060690068401C29D03D
:1003400060692CE010212846FFF7FEFE31688142EB
:100350001CD1A16901F18002C03105E030B108CAA9
:1003600051F8040D984201D1012000E000208A429A
:10037000F4D158B1286810B1042803D0FEE728460C
:1003800000F057F861496868086008E000F016F866
:1003900000F008F84FF480500168491C01D000F0CB
:1003A000A3FAFEE7BFF34F8F59480168594A01F499
:1003B000E06111430160BFF34F8FFEE74FF0102063
:1003C0008169491C02D0806900F0ADB87047524A7B
:1003D00001681160121D416811604F4A8168103236
:1003E0001160111DC068086070472DE9F041174683
:1003F0000D460646002406E03046296800F0A6F8BF
:10040000641C2D1D361DBC42F6D3BDE8F08170B5CD
:100410000C4605464FF4806608E0284600F083F855
:10042000B44205D3A4F5806405F58055002CF4D1C1
:1004300070BD4168044609B1012500E000254FF078
:1004400010267069A268920000F0BCF9C8B120467D
:1004500000F01AF89DB17669A56864684FF4002031
:1004600084420AD2854208D229463046FFF7CFFFA0
:100470002A4621463046FFF7B8FFFFF79FFFFFF7F8
:1004800091FFFFF747FEF8E72DE9FF414FF01024F9
:10049000616980680D0B01EB800000F6FF70010BB5
:1004A00000200090019002900246039068460123CC
:1004B0000BE0560902F01F0C50F8267003FA0CFCF2
:1004C00047EA0C0740F82670521CAA42F1D30AE012
:1004D0004A0901F01F0650F8225003FA06F6354388
:1004E00040F82250491C8029F2D3A169090B4A091E
:1004F00001F01F0150F822408B409C4340F82240FD
:10050000FFF765FFBDE8FF815809000000000020EB
:100510000CED00E00400FA050006004014480168F4
:100520000029FCD07047134A0221116010490B6862
:10053000002BFCD00F4B1B1D186008680028FCD056
:100540000020106008680028FCD07047094B10B5E7
:1005500001221A60064A1468002CFCD00160106861
:100560000028FCD00020186010680028FCD010BDC6
:1005700000E4014004E5014008208F49096809585A
:10058000084710208C4909680958084714208A49EF
:100590000968095808471820874909680958084711
:1005A0003020854909680958084738208249096878
:1005B000095808473C2080490968095808474020E5
:1005C0007D4909680958084744207B49096809584A
:1005D0000847482078490968095808474C20764957
:1005E000096809580847502073490968095808479D
:1005F0005420714909680958084758206E4909680C
:10060000095808475C206C49096809580847602068
:100610006949096809580847642067490968095801
:100620000847682064490968095808476C206249EE
:1006300009680958084770205F4909680958084740
:1006400074205D4909680958084778205A490968A3
:10065000095808477C2058490968095808478020EC
:1006600055490968095808478420534909680958B9
:100670000847882050490968095808478C204E4986
:1006800009680958084790204B49096809580847E4
:10069000942049490968095808479820464909683B
:1006A000095808479C204449096809580847A02070
:1006B0004149096809580847A4203F490968095871
:1006C0000847A8203C49096809580847AC203A491E
:1006D000096809580847B020374909680958084788
:1006E000B4203549096809580847B82032490968D3
:1006F00009580847BC203049096809580847C020F4
:100700002D49096809580847C4202B490968095828
:100710000847C8202849096809580847CC202649B5
:10072000096809580847D02023490968095808472B
:10073000D4202149096809580847D8201E4909686A
:1007400009580847DC201C49096809580847E02077
:100750001949096809580847E420174909680958E0
:100760000847E8201449096809580847EC2012494D
:10077000096809580847F0200F49096809580847CF
:10078000F4200D49096809580847F8200A49096802
:1007900009580847FC2008490968095808475FF4C8
:1007A0008070054909680958084700000348044952
:1007B000024A034B70470000000000206809000057
:1007C0006809000040EA010310B59B070FD1042A15
:1007D0000DD310C808C9121F9C42F8D020BA19BA0C
:1007E000884201D9012010BD4FF0FF3010BD1AB171
:1007F000D30703D0521C07E0002010BD10F8013BC6
:1008000011F8014B1B1B07D110F8013B11F8014BEC
:100810001B1B01D1921EF1D1184610BD02F0FF033F
:1008200043EA032242EA024200F005B870477047EB
:1008300070474FF000020429C0F0128010F0030C42
:1008400000F01B80CCF1040CBCF1020F18BF00F8C3
:10085000012BA8BF20F8022BA1EB0C0100F00DB872
:100860005FEAC17C24BF00F8012B00F8012B48BFD0
:1008700000F8012B70474FF0000200B51346944674
:100880009646203922BFA0E80C50A0E80C50B1F1E8
:100890002001BFF4F7AF090728BFA0E80C5048BFFC
:1008A0000CC05DF804EB890028BF40F8042B08BF9A
:1008B000704748BF20F8022B11F0804F18BF00F896
:1008C000012B7047014B1B68DB68184700000020B4
:1008D00009480A497047FFF7FBFFFFF713FC00BD0B
:1008E00020BFFDE7064B1847064A1060016881F3F8
:1008F0000888406800470000680900006809000097
:100900001D030000000000201EF0040F0CBFEFF3D9
:100910000881EFF30981886902380078182803D12B
:1009200000E00000074A1047074A12682C3212689C
:100930001047000000B5054B1B68054A9B589847B7
:1009400000BD000005030000000000205409000065
:1009500004000000001000000000000000FFFFFF86
:040960000090D00330
:10100000501200207DE501006D2F0000EDE401008D
:101010006D2F00006D2F00006D2F000000000000FC
:10102000000000000000000000000000D5E5010005
:101030006D2F0000000000006D2F00006D2F0000DC
:101040003DE6010043E601006D2F00006D2F00001A
:101050006D2F00006D2F00006D2F00006D2F000020
:1010600049E601006D2F00006D2F00004FE60100E2
:101070006D2F000055E601005BE6010061E601000E
:101080006D2F00006D2F00006D2F00006D2F0000F0
:101090006D2F00006D2F00006D2F00006D2F0000E0
:1010A00067E601006DE601006D2F00006D2F000066
:1010B0006D2F00006D2F00006D2F00006D2F0000C0
:1010C00073E601006D2F00006D2F00006D2F0000F2
:1010D0006D2F00006D2F00006D2F00006D2F0000A0
:1010E0006D2F00006D2F00006D2F00006D2F000090
:1010F0006D2F00006D2F00006D2F00006D2F000080
:101100006D2F00006D2F000000F002F81DF023FA93
:101110000AA090E8000C82448344AAF10107DA4552
:1011200001D11DF018FAAFF2090EBAE80F0013F062
:10113000010F18BFFB1A43F0010318476CDA0100D6
:101140008CDA01000A4410F8014B14F00F0508BFB7
:1011500010F8015B240908BF10F8014B6D1E05D083
:1011600010F8013B6D1E01F8013BF9D1641E03D05C
:10117000641E01F8015BFBD19142E4D3704700008B
:101180000023002400250026103A28BF78C1FBD890
:10119000520728BF30C148BF0B6070471FB500F031
:1011A0003DF88DE80F001FBD1EF0040F0CBFEFF3DC
:1011B0000880EFF30980014A10470000E79E000015
:1011C0008269034981614FF00100104470470000BB
:1011D000D511000001B41EB400B511F025FA01B418
:1011E0000198864601BC01B01EBD0000F0B4404627
:1011F000494652465B460FB402A0013001B506488D
:10120000004700BF01BC86460FBC80468946924617
:101210009B46F0BC70470000091100001DF098B912
:1012200070B51C4C054608202070A01C00F065F825
:101230005920A08029462046BDE8704007F026B816
:1012400010B507F02EF813490020891E087010BD54
:1012500070B50C460F49891E097829B1A0F16001CB
:10126000532906D3012011E0602802D043F2010087
:101270000CE020CC084E94E80E0006EB8000A0F5B0
:101280008050241FD0F8806E2846B047206070BD83
:10129000012070470A000020B8E6010010B504469E
:1012A0000021012000F03FF80021182000F03BF859
:1012B00000210B2000F037F80421192000F033F84A
:1012C00004210D2000F02FF804210E2000F02BF84F
:1012D00004210F2000F027F80421C84300F023F870
:1012E0000721162000F01FF80721152000F01BF839
:1012F0002046FFF795FF002010BD91210180704727
:10130000FFF79EBF10487047104A10B514680F4B86
:101310000F4A08331A60FFF79BFF0C48001D04605A
:1013200010BD704770474907090E002806DA00F023
:101330000F0000F1E02080F8141D704700F1E0205C
:1013400080F800147047000003F9004310050240C4
:101350000100000130B5FF4D044610280AD0112CC1
:1013600006D02846122C817806D0132C08D0FFDF37
:10137000AC7030BDFFDFFBE71129F9D0FFDFF7E7E5
:101380001129F5D0FFDFF3E770B506200DF016FD4B
:10139000044606200DF01AFD251A07200DF00EFD5B
:1013A000044607200DF012FDEA49201A2A18887811
:1013B00012280CD000231A4413280AD0002002441B
:1013C0000878022807D000201044C0B270BD012365
:1013D000F1E70120F3E70120F6E7DE4800B50079E8
:1013E000DC49420897B051F8050F89880CD01722C4
:1013F0008DF80020CDF80200ADF806100BA9684664
:101400000AF095FF17B000BD4022F1E702210DF070
:101410002ABD2DE9F04196B01D4690460E4607467E
:10142000FFF7F4FF04000BD02078222804D3A07F1C
:10143000C0F34010A84206D1082016B0BDE8F081E4
:1014400043F20200F9E745208DF80000ADF8027084
:101450003DB101208DF804008DF805608DF80680FF
:1014600002E000208DF804000BA968460AF05FFF37
:10147000A07F65F34510A0770020DEE730B5044675
:10148000A1F120000D460A284AD2DFE800F0050746
:101490000C1C2328353A3F44FFDF42E02078202807
:1014A0003FD1FFDF3DE0AB480178032939D0807898
:1014B000132836D02078242833D0252831D023286B
:1014C0002FD0FFDF2DE0207822282AD0232828D80B
:1014D000FFDF26E02078222823D0FFDF21E02078DC
:1014E00022281ED024281CD026281AD0272818D01D
:1014F000292816D0FFDF14E02078252811D0FFDF3F
:101500000FE0207825280CD0FFDF0AE0207825287E
:1015100007D0FFDF05E02078282802D0FFDF00E0B9
:10152000FFDF257030BD30B50B8840F67B444FF6A9
:10153000FF72022801D0934204D09D1FA54224D2FD
:10154000022802D04D88954203D04D88AD1FA54298
:101550001BD24C88A34218D88B88B3F5FA7F14D2DB
:10156000022802D0C888904205D0C88840F6774546
:101570000A38A84209D2C888904208D0944206D0BE
:101580005B1C6343B3EB800F01DB072030BD002001
:1015900030BD70B514460D46064611F0B3FA60B979
:1015A0000DB1A54201D90C2070BD002409E000BF97
:1015B00056F8240011F0A6FA08B1102070BD641C82
:1015C000E4B2AC42F4D3002070BDF0B50024059D18
:1015D00010B1A94203D851E009B90020F0BD09209B
:1015E000F0BD055D8DB107197E78112E3FD00FDC5F
:1015F0000A2E3CD2DFE806F03B1624242A2A2C2CA3
:101600003333025D72BB641CE4B28C42F9D3E4E76D
:101610001D2E2CDAA6F11206042E28D2DFE806F0E1
:1016200027271018022DDAD1BD781D70072D01D2A1
:101630006D0701D40A20F0BD157845F0010515E0CD
:10164000EE43F60707E0012D07D010E00620F0BDBD
:101650002E07A6F18056002EF5D06046F0BD157815
:10166000AE0701D50B20F0BD45F002051570055DF4
:10167000641C2C44E4B28C4202D9B0E74FF4485CBD
:101680008C42AED3A9E710B50278540809D00122E4
:1016900043F20223012C07D0022C0DD0032C13D1CE
:1016A0000FE00020087005E080790324B4EB901F60
:1016B0000AD10A70002010BD8079B2EB901F03D1CF
:1016C000F7E780798009F4D0184610BD214A917B54
:1016D00039B1D17B022908D0032908D043F2022076
:1016E00070470146101D01F082BB032100E001217B
:1016F00001700020704738B50C460546694601F078
:1017000076FB00280DD19DF80010207861F347008A
:10171000207055F8010FC4F80100A888A4F805004E
:10172000002038BD38B51378F0B102281CD00AA4C7
:101730006D46246800944C7905EB9414247864F386
:1017400047031370032814D003F0FE0010700868DC
:1017500004E00000C00100200302FF01C2F8010004
:101760008888A2F8050038BD23F0FE031370022814
:10177000E8D1D8B240F00100E8E730B50C4609786E
:1017800097B0222902D2082017B030BD28218DF849
:101790000010ADF80200132A03D03B2A01D0072025
:1017A000F2E78DF804200BA968460AF0C0FD050099
:1017B00003D121212046FFF761FE2846E4E700B56A
:1017C00097B023218DF80010ADF802001088ADF815
:1017D00004005088ADF80600D088ADF80A00908863
:1017E000ADF808000020ADF80C00ADF80E000BA914
:1017F00068460AF09CFD05E62DE9FF470220FA4EF7
:101800008DF804000027708AADF80600B84643F250
:1018100002094DE001A80DF090FA050006D0708A8B
:10182000A8B3A6F81280ADF806803FE0039CA07F25
:1018300001072DD504F124000090A28EBDF8080008
:10184000214604F1360301F0A6FF050005D04D4501
:101850002BD0112D3DD0FFDF3BE0A07F20F0080012
:10186000A077E07F810861F30000C10861F34100C7
:10187000E07794F8210000F01F0084F82000207821
:10188000282827D129212046FFF7F8FD22E015E07E
:1018900040070BD5BDF80800214604F10E02FFF702
:1018A0008EFF05000DD04D4510D100257F1CFFB2E5
:1018B00002200DF083FA401CB842ABD8052D12D09F
:1018C00008E0A07F20F00400A07703E0112D00D0F5
:1018D000FFDF0025BDF806007082052D05D02846E3
:1018E00004B0BDE8F087A6F812800020F8E72DE9E3
:1018F000F047040000D1FFDF2078BB4E20F00F003E
:10190000801C20F0F0007030207060680178091FA2
:101910001429E6D2DFE801F0F00A0B4FEF0B0CEFD1
:10192000EF36F00B0BF074F00B0BF0F0FFDFD8E7A5
:1019300087883846FFF76AFD050000D1FFDF607831
:10194000212140F008006070707C40F00400707449
:101950002846FFF793FD384607F0D0FA384603F0E3
:101960009AFF384605F025F83946022011F087F82D
:10197000A87F20F01000A877FFF73EFF0028B0D026
:10198000FFDFAEE785882846FFF740FD00B9FFDF9F
:1019900060688078012800D0FFDF60688179284680
:1019A00007F01CFC00289CD0617841F008016170B0
:1019B0006168C88095E786883046FFF727FD0500F7
:1019C00000D1FFDF6078314640F008006070606849
:1019D000C088288160680089688160684089A88122
:1019E000022011F04CF80020A875A87F00F0030039
:1019F00002289CD1FFF700FF002898D0FFDF70E796
:101A000080783C2803D0002502280AD000E0012578
:101A1000002720B13C2802D0022800D0FFDF17B1F8
:101A2000A0E00127F5E76078002D40F00800607025
:101A3000707C40F0080070747ED165680221B5F8B2
:101A40000480AD1C474638460DF004FA04460321D5
:101A500038460DF0FFF98246052138460DF0FAF9B7
:101A60008146042138460DF0F5F9074604B9FFDF39
:101A7000BAF1000F00D1FFDFB9F1000F00D1FFDF95
:101A800007B9FFDF22212046FFF7F8FC287901285B
:101A900033D00227A07F062167F30100A077288BAF
:101AA0002081688B6081A88BA08105F1120001F074
:101AB000D5F920B36879800700D5FFDF6979E07D2B
:101AC00061F34700E075D5F80600A0616889A0833E
:101AD000062105F10C0001F0C1F9D0B130794108BF
:101AE000607861F347006070D6F80500C4F8020022
:101AF000B6F8090016E042E046E00127CAE7E07DBB
:101B000020F0FE00801CE075D5F81200A061E88A84
:101B1000DDE7607820F0FE00801C6070E868C4F8A3
:101B20000200288AE0803148007884F82200A07FF3
:101B300000F00301404600E007E007F0D1F9012F73
:101B400003D0022F0ED0FFDFCBE63078032800D081
:101B5000FFDF0021084610F092FFBDE8F0470120AA
:101B600001F013B9B078132800D0FFDF002107205F
:101B700010F085FFBDE8F0471120FFF7EBBB2046D2
:101B8000BDE8F04702F0DAB8607840F00800607015
:101B9000A7E62DE9F047054600789146002702099F
:101BA000DFF844A00C463E46012A70D000214FF6D3
:101BB000FF70022A6CD0072A09D00A2A69D0FFDFF9
:101BC000A9F800600CB127806680002089E6D5F86E
:101BD00004C004F1080204F118089CF80060361FE4
:101BE000142E56D204E00000C00100201000002096
:101BF000DFE806F0984F4F454F4F0A4F4F3C5A4F82
:101C00004FC263FA4F4F50E811270926002C7CD0B1
:101C1000BCF80480A4F804806868807920729AF87F
:101C20001110404621F004018AF8111004210DF032
:101C30002CF9052140460DF028F9002140460DF011
:101C400024F9012140460DF020F9032140460DF012
:101C50001CF9022140460DF018F9062140460DF00E
:101C600014F9072140460DF010F9A9E701270926CC
:101C7000F4B3BCF80400A0806868807912E01227F1
:101C80001026BCF80400214601F0C9F898E7BFE02F
:101C9000E9E00EE11C27092654B3BCF80200A0803D
:101CA0006868007920728BE71B27092604B304209B
:101CB000207268684088A08082E79CF802003C2877
:101CC00026D0102718260CF1020C8CB1BCF80200AB
:101CD000A080BCF818006082BCF818002082BCF814
:101CE0001A00A082BCF81C00E0829CF8050000E00D
:101CF0000BE00CF10601FFF715FD9CF8040010B194
:101D00000120E07309E00220FBE7A9F800605CE72E
:101D10001B270926002CF8D021729AF8111021F007
:101D20000801B2E01D273726002CEED0A08069689C
:101D30000879491DFFF7F6FC686890F82B00A0753C
:101D40006868C0780428E07D13D020F00100E075B9
:101D500069681F22C97861F34200E0756968C97A31
:101D600061F3C700E075696840460C311CF0F6FA73
:101D700026E740F00100EAE71D273726002CC4D0F3
:101D8000A0806968481D0B7901461846FFF7CAFC18
:101D9000696804F10F0201F10C00CB7A0146184684
:101DA000FFF7C0FC6868807CA0756868C178E07D3A
:101DB00061F3420020F0F900E0751F2140461CF05D
:101DC00066FBFDE620271026002C9ED0A0806868C8
:101DD00004F10902407A20726968CB1C88781946A0
:101DE000FFF7A0FCECE6FFE704271026002C8CD0C0
:101DF000BCF80200A0806868808820816868C0887C
:101E0000608168680089A08168684089E081D7E6C0
:101E1000287A012803D0022814D0FFDFD0E61F273C
:101E20001026002CABD06888A08068892081A88902
:101E30006081E889A081288AE0819AF8111021F058
:101E4000200122E012271026688800F0E8FF002C0D
:101E500095D0687800F00700032889D19AF811100E
:101E600021F0020111E02A7A062A29D2DFE802F0E5
:101E70000310102121211B270926002CA5D0A080AA
:101E800021729AF8111021F001018AF8111097E6D9
:101E90001B270926002C98D0A080287A012806D07C
:101EA000032020729AF8111021F01001EDE70220B2
:101EB000F7E74A4621462846BDE8F04702F0B9B8A0
:101EC000FFDF7DE610B5F94896B08078132802D080
:101ED000082016B010BD22208DF800000BA968461E
:101EE0000AF025FA04460021072010F0C8FD20461C
:101EF000EFE700B5ED4897B08078122801D00820B0
:101F000079E41E208DF8000000208DF802008DF885
:101F100003000BA968460AF00AFA0028F0D1002154
:101F2000072010F0ACFD1120FFF714FA002062E446
:101F300000B5DE4897B00078012814D01B208DF83A
:101F4000000000208DF802000BA968460AF0EFF9A6
:101F5000002807D10021084610F091FD012000F073
:101F600014FF002047E4082045E42DE9F041CF4C60
:101F7000002740B102281DD0072842D0082800D0F1
:101F8000FFDFBDE8F081FFF7D3FF0028F9D106F0AD
:101F9000C2F80028F5D0017821F00F01891C21F04A
:101FA000F00120310170077206F095F8607C40F076
:101FB00001001DE08EB23046FFF728FA050000D17F
:101FC000FFDF28782128DCD006F0A5F890B1017851
:101FD00021F00F01891C21F0F00110310170022164
:101FE00001724680AF7506F076F8607C40F0020022
:101FF0006074C6E729463046BDE8F0411322FFF77A
:10200000BCBBA578122D03D0132D04D0FFDFB8E799
:10201000FFF76FFF01E0FFF755FF0028B1D106F091
:102020007AF80028ADD0017821F00F01891C21F049
:10203000F00120310170122D07D00221017206F04B
:102040004AF8607C40F01000D2E70121F6E72DE964
:10205000F04114460D00074600D1FFDF2878012823
:1020600003D0022821D0FFDF8BE73846FFF7CEF9F7
:10207000060000D1FFDF0220B075207820F00F00AD
:10208000801C20F0F00010302070607840F00800D4
:1020900060702868A0606868E060288920828348B2
:1020A000417C41F0200141746BE73846FFF7AEF9FF
:1020B000060000D1FFDF69884FF6FF70814209D129
:1020C000AA88824206D131463846BDE8F041132243
:1020D000FFF753BB814201D1A88898B1207820F046
:1020E0000F00801C20F0F00010302070607840F06D
:1020F000080060702868A0606868E0602889208215
:10210000002006E0782300223946022010F01AFC55
:102110000120B07535E770B5044696B00D46084607
:1021200010F0F0FC78BB00200121614E203C0C2C0B
:102130007AD2DFE804F0062950555E677360447E6A
:102140008A940021082010F073FC10B1112016B001
:1021500070BD24208DF80000D5F80200CDF80200F3
:10216000A8798DF806000BA968460AF0E0F804008B
:1021700073D1082300221146184610F0E3FB08280B
:102180006BD0FFDF69E003E0686810F0FDFC08B188
:102190001020DCE748208DF800002888ADF8020008
:1021A0006888ADF804000BA968460AF0C0F804007E
:1021B00053D1686888B3BDF8301001804DE04920E4
:1021C0008DF800002888ADF80200A87800F0010022
:1021D0008DF8040046E0286802F0CCF904463CE0A3
:1021E0004A2209E08DF802103CE000BF8DF80200A1
:1021F00038E0422200E052228DF800202A78D207EF
:10220000F4D0EFE738208DF800002888ADF8020000
:102210006888ADF8040025E006E015E0287828B1CC
:10222000A0F11B01E12902D3072416E01B20307026
:1022300012E04F208DF800000BA968460AF077F8ED
:1022400004000AD11B20307007E0FFF79DF808B1A9
:10225000082402E00AF050F80024204677E75020D6
:102260008DF800000BA968460AF061F8B6E730B5B2
:10227000054697B00C46084610F068FC10B11020D7
:1022800017B030BD203D0C2D2DD2DFE805F0062A19
:102290002A2A2C2C2A2C2A2A2A2A2088FFF7B6F848
:1022A00040B10078222808D20820E9E7C0010020C8
:1022B0001000002043F20200E2E725208DF8000024
:1022C0002088ADF802000BA968460AF030F8002813
:1022D000D6D1DDF83210C4F802109DF83610A17185
:1022E000CEE70620CCE70720CAE7FC487047FB4949
:1022F000091F08747047F948001F007C00F00100B6
:10230000704738B5F5481421001F1CF09EF80120D5
:1023100000F03BFD1120FFF71DF8F149FB20EF4CC9
:102320000870241F611D684605F0BFFF9DF800106E
:10233000207961F3470020F0010020710020A07394
:102340004FF46170A0810220E073FFF746F800B1FE
:10235000FFDF00F061FE01F0ACFC38BD10B50C46AB
:102360003E2120461CF071F8A07F20F00300A077EA
:10237000202020700020A07584F8230010BD704735
:102380007CB5054610F0BEFB08B110207CBDD34CD7
:10239000241F211D60680090A06801902846FFF767
:1023A000AAF90028F2D1FFF718F80028EED000991A
:1023B0006160BDF8041021819DF80610A1727CBDFA
:1023C00010B5044610F0C2FB08B1102010BDC3497F
:1023D0002246091F0879491D4008FFF7A3F900208C
:1023E00010BD2DE9F0479CB00D4604004FF00008E9
:1023F00011D00822FFF7CDF800281BD1002608E0F5
:1024000054F8260004A9FFF73EF9002812D1761CE3
:10241000F6B2AE42F4D32F460A2006AD0DF1440ABF
:102420008DF8180026465146284609F080FF20B155
:1024300043F203201CB0BDE8F0874046DFF89C82E1
:10244000A8F1040888F803002EB300244FF00B090C
:102450001DE000BF56F8240005A9FFF714F900B1EC
:10246000FFDF9DF81400A87056F8240050F8011FF3
:10247000C5F803108088A5F8070085F8009051463C
:10248000284609F054FF00B1FFDF641CE4B2BC42EF
:10249000E0D388F803700020CCE72DE9F0479EB028
:1024A0001546894604001ED00F4608222946FFF72C
:1024B00070F8002811D1002613E000BF54F8260060
:1024C00005A9103000F093FC002806D13FB157F861
:1024D000260010F017FB10B110201EB0ABE7761CE1
:1024E000F6B2AE42EAD30026A5F101081CE000BF17
:1024F00006F1010A0AF0FF0712E000BF54F82600B7
:10250000017C4A0854F827100B7CB2EB530F05D11D
:102510000622113011311BF0F5FEC0B17F1CFFB255
:10252000AF42EBD30AF0FF064645E1DBC8462F4633
:10253000342007AD0DF148098DF81C0026464946A8
:10254000284609F0F4FE28B143F20420C5E743F21F
:102550000520C2E796B300242CE000BF56F8240003
:10256000A91C103000F043FC00B1FFDF56F8240036
:10257000102250F8111FC5F803108088A5F8070035
:1025800056F8241005F109001BF0E8FEB8F1000F21
:1025900015D058F82410102205F119001BF0DEFEAA
:1025A000322028704946284609F0C1FE00B1FFDFFD
:1025B000641CE4B2BC42D1D3012206E004E005F180
:1025C000190001F0CBFFEBE700224946284600F056
:1025D00039FC002081E770B596B0044610F092FAFD
:1025E00018B9606810F0D9FA08B11020AFE560881A
:1025F0004AF2B811884206D8384D20786E462D1F11
:1026000018B1012804D00720A1E5FEF7E6FE1AE084
:102610006078022804D0032802D043F2022096E515
:10262000E87317208DF80000E97B0020CDF8020048
:10263000ADF80600022932D003292DD0FFDF0BA907
:10264000684609F074FE0028D0D1606801F079FF77
:10265000207870B101208DF80200F01C01F07EFF9F
:102660004C208DF800000BA9684609F060FE00B10F
:10267000FFDF6088A8B1A88180B2ADF802003020E9
:102680008DF800000BA9684609F051FE00B1FFDF8C
:102690002078A87300205AE58DF80700CFE7402086
:1026A000FAE74FF46170E6E710B5044610F04EFA11
:1026B00020B9606838B110F067FA08B1102010BD79
:1026C000606801F04BFF0548001F81896180C17B74
:1026D0006170807B2070002010BD0000C4010020CC
:1026E000100000202DE9F0419CB0054600208DF837
:1026F00064008DF860008DF830008DF868001E468B
:1027000014468846284610F048FA18B9204610F0BA
:1027100044FA10B110201CB033E455EA040018D07C
:102720001F270CAB19AA414628460097FEF74DFF1C
:102730000028F0D11AAB18AA314620460097FEF7C0
:1027400044FF0028E7D19DF86000C00703D00A20AD
:10275000E1E70720DFE701AF7DB11A208DF8040023
:102760008DF8068042462946F81C1BF0F7FD0DA99E
:1027700001A809F0DCFD0028CDD17CB120208DF826
:1027800004008DF8066032462146F81C1BF0E6FD79
:102790000DA901A809F0CBFD0028BCD1FF499DF887
:1027A000300048700020B6E72DE9F0439BB04FF0B1
:1027B0000008FBA104468DF83480D1E90001CDE981
:1027C0001901204610F09EF990B92078012803D114
:1027D000606810F097F958B9F04D4FF00109A87BE7
:1027E00050B1E87B022807D1606810F0D6F918B123
:1027F00010201BB0BDE8F0832878012801D0082004
:10280000F7E707200CF0E2FA18B9207848B1012860
:1028100007D000F0CEFA30B1687C10F00C0F08D170
:1028200003E01220E5E71320E3E7C10701D18007A9
:1028300001D51120DDE7608943F6E172A0F12001A6
:102840009142217807D301297ED100287CD1A1892A
:10285000002979D10FE0022901D0032901D1A02854
:1028600072D3012907D06978C90704D0A18900294A
:102870006AD0B42968D8217831B1012908D0022959
:1028800004D0032960D10AE0002609E0022607E00F
:1028900008B9A08908B1042609E0012607E003264B
:1028A000A87B50B1E87B022807D1606828B10DA948
:1028B0006068FEF7E8FE00289BD1207A30B101283D
:1028C00006D0022806D003286DD105E0002704E0D9
:1028D000012702E0022700E003270EB1022E0ED1ED
:1028E0006FB1E87880B36878800702D043F20120A6
:1028F0007FE7022E03D1022F55D0032F53D018208B
:102900008DF838006089ADF83A006089ADF83C0078
:102910008DF83E600DF13F00FEF7D8FE00B1FFDFFD
:102920009DF834008DF840002078012806D0A87B5F
:1029300068B1E87B02280AD1606840B1606850F84D
:10294000011FCDF8411000E02DE0808802E04046F4
:10295000CDF84180ADF845008DF84870A07BC0F3FC
:102960004002014662F35F01C0F3800041EA80004B
:1029700019A9085C8DF84700A8B169460EA809F0AE
:10298000D6FC0028B4D11B208DF838008DF83A9081
:1029900069460EA809F0CBFC0028A9D19DF80100DA
:1029A0001B2819D101E0072023E7052E09D2DFE813
:1029B00006F0030305050300032000E0022000F0F9
:1029C000E4F9012E0AD0A08940B10022830011460B
:1029D00010460FF0B7FF08B103200AE7002008E710
:1029E0002DE9FC4107460D460326084610F0D5F8B0
:1029F000002864D13846FEF709FD040005D0207890
:102A0000222805D20820BDE8FC8143F20200FAE743
:102A1000A07F00F0030C2DB129466046FEF783FD30
:102A20000600F0D15D48BCF1010F05D0BCF1020FEA
:102A300017D0FFDF3046E6E7A27D2946012A02D003
:102A4000407C800701D51120DDE729B9684600F0F8
:102A5000F0FB0028D7D16946384606F042FB06460F
:102A6000E8E7A17D022914D1407C800611D425B16C
:102A7000A07F40070BD4002100E00121384606F07A
:102A800078FB0600D6D1A075002DD3D002E0112628
:102A9000D0E7A5B12A4621463846FEF790FE064605
:102AA0001128C7D1A07F4107C4D4296844F80E1F5C
:102AB0006968616040F0040020740026BAE71020C5
:102AC000A1E770B50C460546FEF7A0FC010005D055
:102AD00022462846BDE87040FEF74FBE43F2020092
:102AE00070BD00B597B03F218DF800108DF8020041
:102AF0000BA9684609F01BFC17B000BD0123FEF7C7
:102B000088BC00231A461946FEF783BC30B597B03F
:102B100004460FF0F7FF10B1102017B030BD20466B
:102B200000F053F90028F8D11C4DA878112801D0E5
:102B30000820F2E700F03DF920B1687CC00603D51B
:102B40001120EAE71320E8E72078800701D5E8782C
:102B500018B31D208DF800002078022200F001003B
:102B60008DF802006088ADF80400A088ADF806007A
:102B70002078C0F3400102EA500001438DF80910AB
:102B800002A8FEF7A3FD00B1FFDF0BA9684609F01C
:102B9000CEFB0028C1D11E2006E01DE0C0010020B0
:102BA00007060504030201008DF8000001208DF8DE
:102BB000020000208DF803000BA9684609F0B7FB5E
:102BC0000028AAD1E08800F01CF90400A5D1122049
:102BD000FEF7C0FB2046A0E707209EE7F0B597B0C0
:102BE00015460C4607460FF0D8FF38B920460FF0BF
:102BF00089FF18B928460FF085FF10B1102017B0D3
:102C0000F0BD9E4E707C10F0180F01D1400701D529
:102C10001120F4E7204600F0D8F80028EFD129462B
:102C20000220FEF780FC0028E9D1B078112803D0FB
:102C3000122801D00820E2E72078C0F34001394390
:102C400011D0800700D577B906200CF0BFF840B14D
:102C50002078800701D5F07828B1B078122804D008
:102C600007E01220CBE70720C9E7FFF742F9002869
:102C7000C5D100F09EF8022801D21320BFE7212021
:102C80008DF800006088ADF80200A088ADF804005F
:102C90002078C0F340008DF806002078800716D415
:102CA0003878420808D0012A18D043F20221022ABB
:102CB00018D0032A18D115E0C00700D002208DF8E3
:102CC000070057F8010F0290B888ADF80C000DF11D
:102CD0000E00FEF7FBFC58B1032090E7C00705D0BB
:102CE0000320ECE7C00701D0084688E70120E6E7AB
:102CF0002888ADF810006888ADF81200A888ADF8F3
:102D00001400E888ADF816000020ADF81800ADF802
:102D10001A000BA9684609F00AFB00288BD1E0884D
:102D200000F06FF8040086D11320FEF713FB204655
:102D300065E730B5054697B00C4608460FF006FF2C
:102D400008B11020E9E62846FEF760FB38B10178AB
:102D5000222902D3807F800604D40820DDE643F2D6
:102D60000200DAE613208DF80000ADF802500BA93E
:102D7000684609F0DCFA0028E4D19DF932107F2979
:102D800001D02170C9E60520C7E630B53B4D0400EF
:102D900008D0012C04D0022C06D0032C04D0FFDF75
:102DA0002C7030BDFFDFFBE728780128F8D0FFDF6B
:102DB000F6E710B50DF027FE04460FF0FDF9241AD2
:102DC000FEF7E2FA201AC0B286E4418843F6FD73AA
:102DD0000A1F9A4209D28088042806D3B0F5804F92
:102DE00003D8884201D80020704707207047027836
:102DF000520804D0012A02D043F202207047FEF7A5
:102E000042BC10B548B183000022114607200FF0E4
:102E100099FD072801D003205EE400205CE470B532
:102E20000C0006460DD0FEF7F1FA050000D1FFDFD9
:102E3000A68028892081288960816889A081A88945
:102E4000E08170BD10B502F0010282703122027083
:102E500009F06DFA002800D0FFDF3DE410B5002333
:102E60001A4603E0845C2343521CD2B28A42F9D34F
:102E70000BB1002030E401202EE40000C00100204E
:102E80004FF0E0224FF400410020C2F880112049A9
:102E90000870204990020860704730B51C4D044608
:102EA0002878A04218BF002C02D0002818BFFFDFEE
:102EB0002878A04208BF30BD2C701749154A002061
:102EC000ECB1164DDFF858C0131F012C0DD0022CA9
:102ED0001CBFFFDF30BD086003200860CCF8005045
:102EE0004FF400001060186030BD086002200860D8
:102EF000CCF800504FF040701060186030BD086092
:102F000008604FF06070106030BD00B5FFDF00BD9D
:102F10001A00002008F5014000F5004028030020B9
:102F200014F50040094810B504680A4908480860CB
:102F30000EF0A3FA0848046010BD0849002008609C
:102F40004FF0E0210220C1F88002704710050240D6
:102F5000010000011805024014050240FC1F00405A
:102F60000F4A12680D498A420CD118470C4A126860
:102F70000A4B9A4206D101B50FF048FB06F0A9FFB3
:102F8000BDE801400749096809580847064807494C
:102F9000054A064B7047000000000000BEBAFECA9A
:102FA0009C0000200400002050120020501200203D
:102FB00018B1172802D20720704717200849088047
:102FC0000020704706480088704770B50C460546DB
:102FD00007F007FC21462846BDE8704008F002BD16
:102FE0004600002070477047704770477047704731
:102FF0007047704770470021016081807047010071
:1030000018FFFFFFDBE5B15100F001009100FFFF69
:1030100084000000A8CA2D00FE4800210160416024
:1030200070472DE9F743044692B091460120FFF71F
:103030005EF960680FF0A8FD58B160680FF0ADFD53
:1030400038B9607800F00300022802D10020FFF7B1
:103050004EF94D4648460FF055FD18B1102015B0F9
:10306000BDE8F08329460120FEF75DFA0028F6D17D
:1030700001258DF842504FF4C050ADF840000022B9
:1030800010A9284603F039FF0028E8D18DF84250F6
:103090004FF42850ADF8400000261C2168460796E2
:1030A0001BF0F5F99DF81C0007AF20F00F00401C45
:1030B00020F0F00010308DF81C0020788DF81D00F5
:1030C00061789DF81E000DF1400861F3420040F068
:1030D00001008DF81E009DF8000008AA40F00200D3
:1030E0008DF800002089ADF83000ADF832606089BD
:1030F000ADF834000B9760680E900AA9CDF82880CF
:10310000684603F0F9FC0028A9D1C24CBDF82000A4
:1031100008AA20808DF8425042F60120ADF8400008
:103120009DF81E000AA920F00600801C20F0010076
:103130008DF81E000220ADF83000ADF8340013A861
:103140000E90684603F0D8FC002888D1BDF8200016
:103150006080211D484600F032F9002887D18DF8A3
:10316000425042F6A620ADF840001C216846079662
:103170001BF08DF99DF81C00ADF8345020F00F00C5
:10318000401C20F0F00010308DF81C009DF81D0050
:1031900008AA20F0FF008DF81D009DF81E000AA966
:1031A00020F0060040F00100801C8DF81E009DF804
:1031B00000008DF8445040F002008DF80000CDE989
:1031C0000A8711A80E90ADF83050684603F094FCC1
:1031D000002899D1BDF82000E08000203FE73EB5EF
:1031E00004460820ADF8000020460FF08BFC08B123
:1031F00010203EBD21460120FEF795F90028F8D1A8
:103200002088ADF804006088ADF80600A088ADF80D
:103210000800E088ADF80A007E4801AB6A46808865
:10322000002104F065F8BDF800100829E1D0032062
:103230003EBD1FB50446002002900820ADF80800EE
:10324000CDF80CD020460FF05DFC10B1102004B07A
:1032500010BD704802AA81884FF6FF7004F02DFA65
:103260000028F4D1BDF80810082901D00320EEE7AA
:10327000BDF800102180BDF802106180BDF8041077
:10328000A180BDF80610E180E1E701B582B002201F
:10329000ADF800005F4802AB6A464088002104F0A8
:1032A00027F8BDF80010022900D003200EBD1CB580
:1032B000002100910221ADF8001001900FF046FCB2
:1032C00008B110201CBD53486A4641884FF6FF7074
:1032D00004F0F3F9BDF800100229F3D003201CBD5F
:1032E000FEB514460E460746FFF705F828B13046EE
:1032F0000FF008FC18B11020FEBD0F20FEBDF82C09
:1033000001D90C20FEBD38460FF0FCFB414D18BB27
:10331000288801A903F05FF90028F3D138788DF8E7
:103320000500288801A903F0C5FF0028EAD1009014
:103330009DF800009DF8051040F002008DF8000097
:10334000090703D040F008008DF80000288869467E
:1033500003F04EFF0028D5D1ADF808402888334649
:1033600002AA002103F0C4FFBDF80810A142C9D091
:103370000320FEBD7CB50546002000900190088822
:10338000ADF800000C46284601950FF0FDFB18B97A
:1033900020460FF0DBFB08B110207CBD15B1BDF855
:1033A000000050B11B486A4601884FF6FF7004F0D8
:1033B00084F9BDF8001021807CBD0C207CBD30B5A7
:1033C00093B0044600200D460090142101A81BF084
:1033D0005EF81C2108A81BF05AF89DF80000CDF8F3
:1033E00008D020F00F00401C20F0F00010308DF8C5
:1033F00000009DF8010020F0FF008DF801009DF80D
:10340000200040F002008DF8200001208DF84600D9
:1034100002E000001200002042F60420ADF8440053
:1034200011A801902088ADF83C006088ADF83E00FE
:10343000A088ADF84000E088ADF842009DF8020099
:1034400006AA20F00600801C20F001008DF8020082
:103450000820ADF80C00ADF810000FA8059001A9E8
:1034600008A803F049FB002803D1BDF81800288004
:10347000002013B030BD000010B504460FF042FB31
:1034800008B1102010BD2078C0F30210042807D81E
:103490006078072804D3A178102901D8814201D28D
:1034A000072010BDE078410706D421794A0703D4EC
:1034B000000701D4080701D5062010BD002010BD6B
:1034C00010B513785C08C37F64F30003C3771478E6
:1034D000A40864F34103C3771078C309887863F3C1
:1034E0004100887013781C094B7864F347134B70C4
:1034F0001378DB0863F3000088705078487110BDC2
:1035000010B5C4780B7864F300030B70C4786408BA
:1035100064F341030B70C478A40864F382030B7056
:10352000C478E40864F3C3030B700379117863F380
:103530000001117003795B0863F341011170037995
:103540009B0863F3820111700079C00860F3C30126
:10355000117010BD70B514460D46064604F0DBFD33
:1035600080B10178142221F00F01891C21F0F001B3
:10357000A03100F8081B21461AF035FFBDE8704065
:1035800004F0A9BD29463046BDE870401322FEF77D
:10359000F4B870B514460E46054604F0BCFD70B193
:1035A000017821F00F01891C21F0F0012031017018
:1035B000458021688160BDE8704004F08CBD3146D3
:1035C0002846BDE870401322FEF7D7B810B5FE4C70
:1035D00094F8300000280CD104F120014FF6FF725E
:1035E000A1F110000DF085F800B1FFDF012084F893
:1035F000300010BD2DE9F047064608A8894690E83E
:1036000030041F469046142128461AF040FF00213E
:10361000CAF80010B8F1000F03D0B9F1000F03D1C0
:1036200014E03878C00711D020680FF08FFAE8BB9B
:10363000B8F1000F07D120681230286020681430DC
:1036400068602068A8602168CAF800103878800790
:1036500028D560680FF098FA40BBB9F1000F2DD063
:10366000FEF743FE0168C6F8B4118188A6F8B811C8
:10367000807986F8BA01FFF7A9FFDFF84C8308F1DB
:103680002008C5F80C80626862B196F8B40106F2B1
:10369000B51140081032FEF745F810224146606827
:1036A0001AF05CFE3878400712D500E003E0A0680D
:1036B0000FF04CFA50B11020BDE8F0876068002888
:1036C000F9D0E8606068C6F8B001EBE7A06828614F
:1036D0000020F1E730B5054608780C4620F00F00D1
:1036E000401C20F0F001103121700020607095F82E
:1036F000230030B104280FD0052811D0062814D09B
:10370000FFDF20780121B1EB101F04D295F82000D3
:1037100000F01F00607030BD21F0F000203002E0AA
:1037200021F0F00030302070EBE721F0F000403065
:10373000F9E710B510B190F8A94044B1A24890F84B
:10374000354000205CB108601060186010BD00F1C9
:10375000A8040C6000F1D001F8301160F5E79A4C34
:1037600034340C60F0E700B58BB00723CDE90212CA
:103770008DF801300191944900236431059109933A
:1037800001468DF8103068460CF08BFF002800D001
:10379000FFDF0BB000BD30B597B00C462C251A9951
:1037A0008DF80050ADF80200B3B118680190586868
:1037B0000290ADF80C2010220DF10E001AF0CEFD93
:1037C0000BA9684608F0B3FD002803D1A17F41F0A2
:1037D0001001A17717B030BD00200190E8E72DE976
:1037E000F0470646008A8CB080B20D468146FDF750
:1037F0000DFE0446744F3078283FDFF8CC814FF03F
:10380000000A122873D2DFE800F072E93509367732
:103810007E98A8F3E7E6E5E4E35BE3E3A07F00F04E
:103820000300012806D0002148460BF01CFB0500D0
:1038300003D101E00121F7E7FFDF98F85C100906EA
:1038400002D5D8F860000BE0032105F121000EF04D
:1038500005FED5F821005D49B0FBF1F201FB120035
:10386000C5F8210070686866B068A86620782528C9
:1038700000D0FFDFECE0A07F00F00300012806D0BD
:10388000002148460BF0EFFA060003D101E00121C8
:10389000F7E7FFDF7078810702D52178252904D06A
:1038A00040F0010070700CB006E70220287096F816
:1038B0002000287106F121003136C5E90206F2E741
:1038C000A07F00F00300012806D0002148460BF03D
:1038D000CAFA040003D101E00121F7E7FFDF6078B5
:1038E000C10605D51320287041346C60DBE7DEE1AA
:1038F00040F008006070D6E73348082128380EF001
:10390000ADFD032016E02A208DF8000010220DF1F5
:10391000020071681AF022FD10220DF11200B16848
:103920001AF01CFD284968462C3908F000FD00B14A
:10393000FFDF042028706F60B5E7E07FC00600D588
:10394000FFDFB0680090B38806220321484605F0E7
:103950002EFB0028A7D0FFDFA5E704B9FFDF7168C1
:1039600021B1102204F124001AF0F8FC282120468D
:10397000FDF784FDA07F00F0030002280ED104F1C2
:103980002400002300901A4621464846FFF703FF13
:10399000112807D029212046FDF770FD307A84F8E0
:1039A000200080E7A07F000700D5FFDF14F81E0F7E
:1039B00040F008002070A4F816A0C4F818A0C4F8BD
:1039C0001CA0617808460AE02002002040420F0057
:1039D00030E068E196E08CE062E009E03FE061F30E
:1039E0008200410861F3C3006070307AE0705AE7EA
:1039F000A07F00F00300012806D0002148460BF00C
:103A000032FA040003D101E00121F7E7FFDF0221D0
:103A100004F175000EF022FD1020287004F5DA7014
:103A20006860B4F875002882FA486C346C61C5E9A6
:103A3000028038E7A07F00F00300012805D00021B4
:103A400048460BF010FA18B901E00121F8E7FFDF52
:103A50000CB0324621464846BDE8F0477AE504B945
:103A6000FFDF207821289CD93079012802D0022854
:103A70000AD103E0E07F40F01000E07798F85C1096
:103A800041F0010188F85C10324621464846FFF7B4
:103A900061FD0CB02046BDE8F0472321FDF7EEBCE8
:103AA000327901230321484605F090F878B11120BE
:103AB0002870327905F10800AA80031D00900321C7
:103AC000484605F000F9002891D0FFDFEBE6A07F23
:103AD00000F00300012806D0002148460BF0C3F98E
:103AE000040003D101E00121F7E7FFDF3079207006
:103AF000D9E60321484605F007FC002899D1122099
:103B00002870D0E6A07F00F00300012806D0002135
:103B100048460BF0A8F9050003D101E00121F7E7C1
:103B2000FFDF95F8740000F00300012878D1A07F32
:103B300000F00307E07FC0F3400616B1012F04D068
:103B40002BE095F89000C0072AD0D5F8AC1119B336
:103B500095F87320087C62F387000874E27FD5F83B
:103B6000AC1162F341000874D5F8AC1166F30000A3
:103B70000874AEB1D5F8AC01102204F124017835F7
:103B80001AF0ECFB287E40F001002876287820F01F
:103B9000010005F8780900E016B1022F04D02CE0EE
:103BA00095F87800C00726D0D5F8A81119B395F874
:103BB0007320087C62F387000874E27FD5F8A811AF
:103BC00062F341000874D5F8A81166F30000087488
:103BD0008EB1D5F8A801102204F1240178351AF02D
:103BE000BDFB287840F0010005F8180B287820F07C
:103BF000010005F89009022F51D0002000EB400091
:103C000005EBC00090F87800800709D595F86C00A6
:103C1000D5F8B021400805F16D011032FDF782FDA5
:103C2000052060F3070815F8740F00F0030060F337
:103C30000F28287960F31748287F60F31F687548BC
:103C40005C38027822F00F02921C22F0F00220323F
:103C50000270427822F00702D21C4270A0F8029053
:103C6000C0F8088004F0C1FB2078252805D0212861
:103C700007D0FFDF2078222803D922212046FDF734
:103C8000FDFBA07F00F0030001280AD00021484678
:103C90000BF0FBF800283FF412AEFFDF03E6012033
:103CA000ACE70121F3E7716881F801A0FBE5FFDFD4
:103CB000F9E570B5574C0025103C14F85C0F20F066
:103CC0008000207065600CF0B4FC5249A1F1100036
:103CD00004F01DFB04F82C5C062060724D487C301B
:103CE00020615030A0611030E06170BD70B50D46AC
:103CF000FDF78CFB040000D1FFDF4FF4DE71284696
:103D00001AF0C5FB43485430686104F1240028616F
:103D1000A07F00F00300012808D0022105F5907073
:103D20000CF088FC002800D0FFDF70BD0121F5E712
:103D30000A46014602F590700CF09CBC70B5054631
:103D400040689CB0017808290DD00B2903D00C29BC
:103D500036D101218171686886883046FDF756FBAF
:103D6000040035D133E046883046FDF74FFB0400B0
:103D700000D1FFDF2078212822D0282822D16868AE
:103D800002210C3001F0B8F9E0B168680821001D8B
:103D900001F0B2F9B0B12D208DF80000ADF802604D
:103DA000102204F1240101A81AF0D8FA0BA96846E0
:103DB00008F0BDFA00B1FFDF29212046FDF75EFBC8
:103DC0001CB070BD687840F008006870F8E7FFDF4D
:103DD000A07F00F00301022902D120F01000A0779B
:103DE000207821280AD06868817909B1807898B153
:103DF000A07F00F0030002285BD0FFDFA07F00F06F
:103E000003000228DCD1FDF7F7FC0028D8D0FFDF43
:103E1000D6E7000030020020687840F008006870A3
:103E2000E07FC10720D0800701D5062000E00520F3
:103E300084F823002078292818D02428DED13146A0
:103E400006200EF01CFE22212046FDF717FBA07F66
:103E500000F0030001282AD0002130460BF015F8AD
:103E60000028CBD0FFDFC9E70420E1E7A07F00F006
:103E70000300012806D0002130460AF0F4FF0500B7
:103E800003D101E00121F7E7FFDF25212046FDF7FF
:103E9000F5FA0F208DF8580016A905F590700CF072
:103EA000E0FB0228AAD00028A8D0FFDFA6E7012166
:103EB000D3E7687840F0080068709FE72DE9F04389
:103EC0008BB09946154688460646FDF79FFA0400D2
:103ED0004ED0207822284BD3232849D0E07FC0063B
:103EE00046D4A07F00F00300012806D00021304610
:103EF0000AF0B9FF070002D00BE00121F7E7A07F2D
:103F000000F00300012804D1012130460AF0A2FF8D
:103F1000074601AB02AA03A93846FFF70AFC03983B
:103F200000B9FFDF4FB1039807F5907787612078DC
:103F3000222806D0242804D007E0039900208861B5
:103F400003E025212046FDF799FA03980B214170E3
:103F500046628580C0E90289029901610199416147
:103F600004A90CF09EFB022802D0002800D0FFDF3D
:103F70000BB0BDE8F08330B587B00546FDF746FAD3
:103F8000017822292FD9807F00F00300012806D074
:103F9000002128460AF067FF040003D101E0012157
:103FA000F7E7FFDF227801230321284604F00EFE05
:103FB000002818D011208DF80400227803A8009062
:103FC000ADF8082004AB0321284604F07CFE00B1C4
:103FD000FFDF01A904F590700CF043FB022802D02A
:103FE000002800D0FFDF07B030BD10B586B0044612
:103FF000FDF70CFA0178222919D9807F00F003001F
:10400000012806D0002120460AF02DFF040003D12C
:1040100001E00121F7E7FFDF12208DF8000069467B
:1040200004F590700CF01DFB002800D0FFDF06B0F7
:1040300010BD2DE9F05F05460C460027007890463C
:1040400001093E46BB4604F1080A02297ED0072931
:1040500002D00A2909D142E068680178082905D010
:104060000B292CD00C292AD0FFDFC6E114271C26EF
:10407000002C6CD04088A080FDF7C8F95FEA0009E9
:1040800000D1FFDF99F817005246400809F11801E6
:10409000FDF748FB68688089208268684168C4F839
:1040A00012108068C4F81600A07E20F0060040F0D0
:1040B0000100A07699F81E0040F040014DE01A275B
:1040C0000A26002CD5D08088A080FDF79FF9050036
:1040D00000D1FFDF51462846FFF7FCFA8DE10CB115
:1040E000288BA080287A0E287ED006DC01287CD080
:1040F000022808D0032804D135E0102876D01128F2
:1041000075D0FFDF79E11E270926002CB1D0A088E9
:10411000FDF77CF95FEA000900D1FFDF287B00F0A2
:1041200003000128207A1BD020F001002072297B97
:10413000890861F341002072297BC90861F382007C
:104140002072297B090961F3C30001E04AE117E10C
:10415000207299F81E0040F0800189F81E104CE191
:1041600040F00100E2E713270D26002CAAD0A0881A
:10417000FDF74CF98146807F00F00300012806D04E
:104180000021A0880AF06FFE050003D101E00121A3
:10419000F7E7FFDF99F81E0000F00302012A59D06B
:1041A000A86E817801F003010129217A54D021F011
:1041B0000101217283789B0863F3410121728378A6
:1041C000DB0863F38201217283781B0963F3C30167
:1041D0002172037863F306112172437863F3C711E8
:1041E000217284F809B003E05EE0A4E08CE09CE07A
:1041F000C178A172012A32D04279E17A62F30001DA
:10420000E1724279520862F34101E1724279920807
:1042100062F38201E1724279D20862F3C301E17272
:104220000279217B62F3000121730279520862F363
:10423000410121730279920862F3820121730079AE
:10424000C00860F3C301217399F8000023285AD9EC
:10425000262168E0686EA4E741F00101A9E7027930
:10426000E17A62F30001E1720279520862F34101DE
:10427000E1720279920862F38201E1720279D20856
:1042800062F3C301E1724279217B62F30001217381
:104290004279520862F3410121734279920862F334
:1042A000820121734079CBE718271026002C67D0B4
:1042B000A088FDF7ABF88246807F00F0030001285C
:1042C00007D00021A0880AF0CEFD5FEA000903D1E3
:1042D00001E00121F6E7FFDFE868A06099F801003E
:1042E00040F0040189F8011099F80200800708D510
:1042F000012020739AF8000023287ED927215046F8
:1043000063E084F80CB078E015270F26C4B3A088CA
:10431000FDF77CF8814606225146E86808F06FF800
:104320000120A073AEE048464FE0162709263CB3B3
:10433000287B207261E0297BFE4802290CD01927D6
:104340000E26ECB101290DD003291AD004291BD067
:10435000052919D0FFDF23E01B270926BCB3012163
:10436000217205E001212172617A21F0030161725D
:1043700010F85C1F4A08520062F3060101700FE05A
:104380002BE00220207207E0687B052900F00F0077
:1043900040F0800020721BD0607A20F00300607231
:1043A000A088FDF733F805460078212825D023287A
:1043B00000D0FFDFA87F00F00300012810D000210B
:1043C000A0880AF062FD22212846FDF757F814E084
:1043D000607A20F00300401CE1E7A8F8006011E0DB
:1043E0000121EDE70CB16888A080287A03282BD042
:1043F00004280AD005284BD0FFDFA8F800600CB1D4
:10440000278066800020BDE8F09F15270F26002C2E
:10441000E3D0A088FCF7FAFF807F00F003000128BA
:1044200006D00021A0880AF01EFD050003D101E09E
:104430000121F7E7FFDFD5F821000622514607F0FA
:10444000DEFF84F80EB0D8E717270926002CC4D069
:10445000A088FCF7DBFF8146807F00F00300012885
:1044600006D00021A0880AF0FEFC050003D101E07F
:104470000121F7E7FFDFA878800701D5022000E0DF
:104480000120207299F800002328B6D927214AE795
:1044900019270E26002CA0D0A088FCF7B7FF5FEAF2
:1044A000000900D1FFDFC4F808B0A4F80CB084F80C
:1044B00008B0A07A40F00300A07299F81F1061F3D1
:1044C0008200A07299F81F1001EA510161F3C30044
:1044D000A072687A00F0030001288ED1607A40F063
:1044E0000400607299F81E00E97A00F003000128C8
:1044F00013D0607B61F300006073AA7A217B62F3C2
:1045000000012173EA7A520862F341006073A87ACD
:10451000400860F3410121736FE7207B61F30000E5
:104520002073AA7A617B62F300016173EA7A520810
:1045300062F341002073A87A400860F3410161737F
:104540005BE710B57B4C30B10146102204F120002E
:1045500019F004FF012084F8300010BD10B50446A6
:10456000FFF734F8734920461022BDE8104020318F
:1045700019F0F4BE70B56F4C06004FF0000514D072
:104580000EF0C0FA08B110250DE00621304607F004
:104590001DFF411C06D0206614F85C0F40F080001F
:1045A000207000E00725284670BD14F85C0F20F04D
:1045B0008000F5E7007810F00F0204D0012A05D042
:1045C000022A0CD110E0000909D10AE000090128F3
:1045D00007D0022805D0032803D0042801D00720E3
:1045E00070470870002070470620704705282AD2BF
:1045F000DFE800F003070F171F00087820F0FF0026
:104600001EE0087820F00F00401C20F0F000103071
:1046100016E0087820F00F00401C20F0F000203059
:104620000EE0087820F00F00401C20F0F000303041
:1046300006E0087820F00F00401C20F0F000403029
:10464000087000207047072070472DE9F041804630
:1046500088B00D46002708460EF09FFAA8B94046DC
:10466000FCF7D4FE040003D02078222815D104E002
:1046700043F2020008B0BDE8F08145B9A07F010611
:1046800003D500F00300022801D01020F2E7A07F3C
:10469000C10601D4010702D50DB10820EAE725497A
:1046A00091F85C10C90701D01120E3E7E17FC9064A
:1046B00001D50D20DEE700F00300022805D125B169
:1046C0002846FEF7D9FE0700D4D1A07F00F00300F2
:1046D000012806D0002140460AF0C5FB060002D0A2
:1046E0000CE00121F7E7A07F00F0030001280BD0C8
:1046F000002140460AF0AEFB060007D0A07F00F084
:104700000300022804D009E00121F2E70420B1E708
:1047100025B12A4631462046FEF7D2FE07AB1A469F
:1047200069463046FFF705F8009800B9FFDF0C2016
:10473000009901E020020020487006F59070C1F851
:104740002480486100200881A07F00F00300012838
:1047500028D0EDB302200871301D886170784009BF
:104760000877B078C0F340004877287800F001025D
:10477000887F62F301008877E27F62F382008877A6
:10478000E27F520862F3C3008877B27862F30410C4
:104790008877A878C87701F1210228462031FEF7F2
:1047A000AFFE22E001200871287800F00102087EA7
:1047B00062F3010008762A78520862F382000876D4
:1047C0002A78920862F3C30008762A78D20800E0BB
:1047D00007E062F30410087624212046FCF74EFE21
:1047E0000BE0032008710520087625212046FCF700
:1047F00045FEA07F20F08000A07701A900980BF073
:1048000050FF022801D000B1FFDF384632E72DE922
:10481000FF4FF94A0D4699B09A4607CA14AB0027D4
:1048200083E807001998FCF7F1FD060006D0307800
:10483000262806D008201DB0BDE8F08F43F2020004
:10484000F9E7B07F00F00309B9F1010F03D0B9F126
:10485000020F07D008E03DB91B98FEF70DFE0028B7
:10486000E9D101E01B9878BBB07F00F0030001287C
:1048700006D0002119980AF0F6FA040003D101E0ED
:104880000121F7E7FFDF852D25D007DCD5B1812D8C
:104890001BD0822D1BD0832D08D11AE0862D1CD071
:1048A000882D1CD0892D1CD08A2D1CD00F20207162
:1048B0000F281AD001208DF83400201D0E90207989
:1048C000A8B158E10020F2E70FE00120EFE7022055
:1048D000EDE70320EBE70520E9E70620E7E70820FE
:1048E000E5E70920E3E70A20E1E70720A3E7B9F1BC
:1048F000010F17D0D4E91950804602200190012001
:104900000090A87898F80210C0F3C000C1F3C0016D
:1049100008405FEA000B5DD050460EF0F3F8002827
:104920006CD12DE0D4E9198501200190022000907E
:10493000214630461B9AFEF7C3FD1B98007800F015
:104940000101A87861F30100A870F17F61F3820092
:10495000A870F17F490861F3C300A870A17861F3E2
:104960000410A870607840092870A078C0F3400057
:1049700068701B988078E870002068712871C0E723
:10498000DAF80C000EF0BEF8C0BBDAF81C000EF02E
:10499000B9F898BBDAF80C00A060DAF81C00E06007
:1049A00098F80100A17800F0010041EA4000A070F1
:1049B00098F80210C0B2C1F30011891E0840A0701F
:1049C000002084F82000009906F1170002290BD07E
:1049D00001210AE098F80110A07801F00101FD2200
:1049E00042EA41010840E2E7002104EB81018861CD
:1049F0000199701C022902D0012101E028E0002168
:104A000004EB81018861A87800F00300012849D1F6
:104A100098F8020000F00300012843D1B9F1010F1A
:104A200004D12A1D691D1B98FEF76AFD297998F8A3
:104A3000040001408DF82C10687998F8052010408A
:104A40008DF8300001432DD050460EF05BF808B1D0
:104A50001020F0E60AF1100004F5D47104F17C0294
:104A60000490B9F1020F3CD00090CDE90121002162
:104A70000BAB5A462046FEF7BDFD0028E9D104F5F0
:104A8000D67104F19402B9F1010F30D0049800906E
:104A9000CDE9012100210CAB5A462046FEF7AAFDC4
:104AA0000028D6D1A078800740D4A87898F80210C2
:104AB000C0F38000C1F38001084337D0297898F80B
:104AC000000014AAB9F1010F17D032F810204B00E2
:104AD000DA4012F0030718D0012F1ED0022F12D196
:104AE0001DE0CDF800A0CDE901210121C0E7CDF8FE
:104AF00000A0CDE901210121CDE732F811204300CA
:104B0000DA4002F00307032F07D0BBF1000F0DD0EE
:104B1000012906D0042904D008E00227F5E701277F
:104B2000F3E7012801D0042800D10427F07F40F0EA
:104B300001006BF34100F077A07881074FF003008C
:104B40000CD5A071BBF1000F15D100BF8DF85C0032
:104B500017AA31461998FEF71CFD0CE00221022F1E
:104B600018D0012F18D0042F22D00020A071F07F80
:104B700020F00100F07725213046FCF77FFC0DA9DD
:104B800004F590700BF06DFD10B1022800D0FFDF2E
:104B9000002050E6A171D9E7A1710D2104F1240094
:104BA00019F075FC607840F0020060700420CDE7D9
:104BB0000120A071DFE72DE9F04387B091468846D8
:104BC0000446FCF723FC070006D03878272806D0D7
:104BD000082007B0BDE8F08343F20200F9E7B87F90
:104BE00000F00300012809D0002120460AF03BF91B
:104BF000040006D104E0000004E801000121F4E70C
:104C0000FFDFA679012E08D0B8F1000F0FD048467B
:104C10000DF078FFB8B11020DBE7B9F1000F25D116
:104C2000B8F1000F09D0B8F1010F1FD120E0022E1A
:104C300005D0032E05D0FFDF28E00C2526E0012556
:104C400024E0022522E0B8F1020F03D0B8F1010FF1
:104C50000AD00BE0032E09D100251022494604F1A9
:104C6000210019F07BFB11E0022E01D00720B0E7F4
:104C70000025102104F1210019F0E7FB5FEA09008B
:104C800004D0062107F0A2FBC4F82100607825219A
:104C900040F0020060703846FCF7F0FB6078C10716
:104CA00013D020F00100607002208DF8000004F1A4
:104CB000210002908DF804506946FF300BF0D1FCC2
:104CC000022804D018B1FFDF01E084F82050002052
:104CD0007FE730B587B00D460446FCF797FB88B1F7
:104CE000807F00F0030001280FD0002120460AF049
:104CF000BAF804000ED028460DF004FF38B1102099
:104D000007B030BD43F20200FAE70121EEE7607818
:104D1000400701D40820F3E7294604F1410020228E
:104D2000054619F01BFB607840F010006070010729
:104D30000FD520F00800607013208DF80000694640
:104D400004F5907001950BF08CFC022801D000B1A5
:104D5000FFDF0020D4E770B592B00D460646FCF7A1
:104D600055FB18B10178272940D103E043F2020036
:104D700012B070BD807F00F00300012806D0002132
:104D800030460AF070F8040003D101E00121F7E792
:104D9000FFDFA079022829D1A078C00726D0002300
:104DA00002220321304603F011FF08B30C208DF8D6
:104DB00005000A9604A804F5907402220090069457
:104DC000ADF80C2005AB0321304603F07CFF00B1A9
:104DD000FFDF04208DF808008DF81C500BA901A8F6
:104DE0000BF05FFC00B1FFDF0020C1E70820BFE748
:104DF0001120BDE770B5064686B014460D4608463C
:104E00000DF080FE18B920460DF0A0FE10B1102064
:104E100006B070BDA6F57F40FF380ED03046FCF7D7
:104E2000F5FA38B1417822464B08811C1846FCF748
:104E300079FC07E043F20200EAE72046FDF7C0FAFA
:104E40000028E5D11021E01D0DF008FBE21D2946E8
:104E50006846FEF788FC102204F11700019919F04A
:104E60007DFA0020D4E72DE9F041044690B01546C4
:104E70008846002708460DF090FE18B928460DF028
:104E80008CFE18B1102010B0BDE8F0812046FCF770
:104E9000BDFA060003D03078272818D102E043F28B
:104EA0000200F0E7B07F00F00300012806D00021E7
:104EB000204609F0D8FF040003D101E00121F7E703
:104EC000FFDF6078400702D5A078800701D4082072
:104ED000D9E7B07F00F00300012818D0D4E9190108
:104EE000407800B1B5B1487810B1B8F1000F11D0D9
:104EF000C5B1EA1D02A8E168FEF735FC102205F1F4
:104F00001700039919F0FEF930B104270AE0D4E93B
:104F10001910E5E70720B6E71022E91D04F131007A
:104F200019F01CFAB8F1000F06D0102208F10701A1
:104F300004F1210019F012FA6078252140F00200F6
:104F400060703046FCF79AFA6078C10715D020F0FF
:104F50000100607002208DF8200004F121000A9009
:104F600010300B908DF8247008A9EF300BF079FB0E
:104F7000022804D018B1FFDF01E084F8207000207F
:104F800081E7F8B515460E460746FCF73FFA0400E0
:104F900004D02078222804D00820F8BD43F2020073
:104FA000F8BDA07F00F00300022802D043F2050004
:104FB000F8BD30460DF0A6FD18B928460DF0A2FD4B
:104FC00008B11020F8BD00953288B31C2146384640
:104FD000FEF7E1FB112814D00028F3D1297C4A0800
:104FE000E17F62F30001E1772A7C62F34101E1771E
:104FF000297C890884F82010A17F21F08001A17705
:10500000F8BDA17F0907FBD4D6F80200C4F836002A
:10501000D6F80600C4F83A003088A0861022294647
:1050200004F1240019F09AF9287C4108E07F61F32B
:105030008200E077297C61F3C300E077287C800858
:1050400084F82100A07F40F00800A0770020D3E77B
:1050500070B596B00D46064613B1072016B070BD68
:10506000FCF7D4F9040007D02078222802D3A07FCF
:10507000400604D40820F1E743F20200EEE7C5B190
:105080002D208DF80000ADF802601022294601A8FD
:1050900019F064F9287C4108E07F61F30000E077B3
:1050A000297C61F34100E077287C800884F82000A7
:1050B00004E02E208DF80000ADF802600BA96846D0
:1050C00007F035F9A17F21F04001A177C6E770B55F
:1050D0000D46FCF79BF9040005D028460DF036FD7F
:1050E00020B1102070BD43F2020070BD2946204659
:1050F000FEF7F0FA002070BD05E000BF10F8012BAC
:105100000AB100207047491E89B2F7D201207047CA
:10511000F0B50078059F1E4614460D46012800D0C4
:10512000FFDF0C2030803A203880002C08D0287A0D
:10513000052806D0287B012800D0FFDF17206081DA
:10514000F0BDA889FBE72DE9F04786B0144691F839
:105150000C900E9A0D46B9F1010F0BD0102100787A
:105160002E8A8846052807D0062833D0FFDF06B0F0
:10517000BDE8F0870221F2E7E8890C2100EB40004E
:1051800001EB4000188033201080002CEFD0E8891C
:10519000608100271AE00096688808F1020301AADE
:1051A000696900F096FE06EB0800801C07EB4701DA
:1051B00086B204EB4102BDF8040090810DF10601B6
:1051C00040460E320BF00EFB7F1CBFB26089B84226
:1051D000E1D8CCE734201080E889B9F1010F11D073
:1051E000122148430E301880002CC0D0E88960811D
:1051F0004846B9F1010F00D00220207300270DF1BD
:10520000040A1FE00621ECE70096688808F1020313
:1052100001AA696900F05DFE06EB0800801C86B2F9
:10522000B9F1010F12D007EBC70004EB4000BDF845
:105230000410C18110220AF10201103019F08EF819
:105240007F1CBFB26089B842DED890E707EB470108
:1052500004EB4102BDF80400D0810AF1020140468E
:1052600010320BF0BFFAEBE72DE9F0470E4688B09D
:1052700090F800C096F80C80378AF5890C201099B8
:1052800002F10C044FF0000ABCF1030F08D0BCF18E
:10529000040F3ED0BCF1070F7DD0FFDF08B067E7F9
:1052A00005EB850C00EB4C00188031200880002AAB
:1052B000F4D0A8F1060000F0FF09558125E018217F
:1052C00001A819F0E4F800977088434601AA7169B3
:1052D00000F0FFFDBDF804002080BDF80600E0806E
:1052E000BDF808002081A21C0DF10A0148460BF010
:1052F00079FAB9F1000F00D018B184F804A0A4F82D
:1053000002A007EB080087B20A346D1EADB2D6D2F8
:10531000C4E705EB850C00EB4C00188032200880B8
:10532000002ABBD0A8F1050000F0FF09558137E045
:1053300000977088434601AA716900F0CAFD9DF884
:105340000600BDF80410E1802179420860F30001F5
:1053500062F34101820862F38201C20862F3C30171
:10536000020962F30411420962F34511820962F3F2
:1053700086112171C0096071BDF8070020812246A5
:105380000DF1090148460BF02DFA18B184F802A07E
:10539000A4F800A000E007E007EB080087B20A3499
:1053A0006D1EADB2C4D279E7A8F1020084B205FB4C
:1053B00008F000F10E0CA3F800C035230B80002A82
:1053C000A6D055819481009783B270880E3271699E
:1053D00000F07FFD62E72DE9F84F1E460A9D0C465E
:1053E00081462AB1607A00F58070D080E089108112
:1053F00099F800000C274FF000084FF00E0A0D2816
:1054000073D2DFE800F09E070E1C28303846556A3C
:1054100073737300214648460095FFF779FEBDE897
:10542000F88F207B9146082802D0032800D0FFDFA8
:10543000378030200AE000BFA9F80A80EFE7207B20
:105440009146042800D0FFDF378031202880B9F151
:10545000000FF1D1E3E7207B9146042800D0FFDF65
:1054600037803220F2E7207B9146022800D0FFDF10
:1054700037803320EAE7207B1746022800D0FFDF81
:105480003420A6F800A02880002FC8D0A7F80A80F2
:10549000C5E7207B1746042800D0FFDF3520A6F89B
:1054A00000A02880002FBAD04046A7F80A8012E05A
:1054B000207B1746052802D0062800D0FFDF1020E9
:1054C000308036202880002FA9D0E0897881A7F885
:1054D0000E80B9F80200B881A1E7207B9146072829
:1054E00000D0FFDF37803720B0E72AE04FF012000E
:1054F00018804FF038001700288090D0E08978811C
:10550000A7F80E80A7F8108099F800000A2805D0A7
:105510000B2809D00C280DD0FFDF80E7207B0C285A
:1055200000D0FFDF01200AE0207B0D2800D0FFDF44
:10553000042004E0207B0E2800D0FFDF0520387314
:105540006DE7FFDF6BE770B50C460546FBF75EFFC6
:1055500020B10078222804D2082070BD43F2020056
:1055600070BD0521284609F07EFC206008B10020AE
:1055700070BD032070BDFFB585B00746089814467E
:105580000D46022628B908A93846FFF7DCFF002897
:1055900040D108980121801D04F0C6FDADF8080037
:1055A00002464DB100233146384603F00FFB98B355
:1055B0000898007880BB05E02078092820D00F28C3
:1055C0002BD0FFDF03A8009004ABBDF808203146C4
:1055D000384603F078FB00281CD1089802A9801DEA
:1055E000C4E90107DDE90332204604F0AAFD40B317
:1055F000072824D2DFE800F01A182323211C1E00FC
:10560000072600233146384603F0E0FA0028D9D1B6
:1056100043F2040009B0F0BD06E0002331463846ED
:1056200003F0D4FA0028CDD11120F3E70020F1E7F0
:105630000820EFE743F20300ECE70720EAE7032046
:10564000E8E703980090BDF8083004223146384658
:1056500003F0ADFC0028DDD1002DDBD008990D70E2
:10566000D8E710B588B01C46AAB104238DF80030E5
:105670001388ADF80C305288ADF80E208A788DF87A
:1056800012200988ADF8101000236A462146FFF762
:1056900072FF08B010BD1020FBE770B50D46052164
:1056A00009F0E1FB040000D1FFDF2946A01DBDE8A1
:1056B000704004F022BD70B596B00C460646FFF768
:1056C000ECFF05462146304601F03AFE0121304606
:1056D00001F054FE06F014FE002827D0002D25D13D
:1056E0003046FBF793FE050000D1FFDF95F822005E
:1056F0001B281BD9172C19D93A208DF80000ADF8BA
:10570000026095F82200211D884201D9241D00E085
:105710000446ADF8044040F64800ADF806000BA979
:10572000684606F004FE002800D0FFDF16B070BD0A
:105730002DE9F8430546007800260C4612287BD256
:10574000DFE800F0896464433B6637371337373747
:105750000937373737372879001FC0B2022801D000
:1057600010281FD104BBFFDF1EE004B9FFDF6088F3
:10577000052109F078FB0078032805D004280AD019
:10578000072811D0FFDF0DE02879801FC0B2022862
:105790000AD048B106E02879401FC0B2022803D0E1
:1057A000102801D0072657E0607840F008006070AC
:1057B00052E0002CF8D1FFDFF6E704B9FFDF2879CB
:1057C0000128F1D16088172142E0A888052180B224
:1057D000804609F048FB074604B1FFDF07B9FFDF49
:1057E0004146B81D04F063FC02F095FC040008D0AB
:1057F000607840F008006070A4F8028002F06BFC52
:105800002BE013214046FDF75CF937E0FFDF23E092
:1058100004B9FFDF6088052109F025FB070000D1EE
:10582000FFDF6946B81D04F049FC00B1FFDFA9881D
:10583000172902D2172201E00DE00A46BDF8000048
:10584000824201D9014602E0172900D2172160885F
:10585000FFF731FFA8E7FFDF84B1607800070DD5BF
:105860002078182220F00F00C01C20F0F0009030AB
:105870002070294604F1080018F0B5FD3046BDE857
:10588000F88300200870881D04F005BC0A46014614
:10589000901D04F012BC70B50546052109F0E3FA2D
:1058A000040000D1FFDF2946A01DBDE8704004F0D0
:1058B000FEBB2DE9F74F90B04FF0000AADF830A0D5
:1058C000ADF804A047880C4605460521384609F086
:1058D000CAFA060000D1FFDF24B1A780A4F806A011
:1058E000A4F808A0297A04F110003827C91E4FF047
:1058F0000C0B4FF001084FF0120902900F297DD2D6
:10590000DFE801F0F1F0EF7F08D2888D9F3DDBF2F8
:10591000EDB6B6003078022800D0FFDFA8890BEB87
:10592000C001ADF804103021ADF83010002C25D0A6
:105930006081B5F80E8000271DE004EBC7093179BE
:1059400089F80E107188A9F80C10CDF800806888CD
:10595000042305AA296900F0BCFABDF81410A9F8BF
:10596000101008F10400BDF816107F1C1FFA80F813
:10597000A9F81210BFB26089B842DED808E13078C9
:10598000022800D0FFDFE9890BEBC100ADF804006D
:105990003020ADF8300095F80CB0002CABF10400CD
:1059A000C0B20F90EAD06181B5F81090002722E0D4
:1059B000CDF8009068885B4603AA696900F089FA0F
:1059C00009EB0B001FFA80F904EBC70808F10C0281
:1059D00004A90F980AF006FF18B188F80EA0A8F8DD
:1059E0000CA0BDF80C10A8F81010BDF80E107F1C0C
:1059F000A8F81210BFB26089B84200E0C7E0D7D85B
:105A0000C6E00CA8009001AB224629463046FFF7BD
:105A10009AFBBDE03078082805D0FFDF03E030783E
:105A2000082800D0FFDFE8891030ADF804003620E8
:105A3000ADF83000002C3FD0A98961817188A18127
:105A400027E03078092800D0FFDFA88900F10C0199
:105A5000ADF804103721ADF83010002C2CD0608147
:105A6000E8890090AB89688804F10C02296955E047
:105A7000E8893921103080B2ADF80400ADF830105B
:105A8000002C72D0A9896181287A10280AD00221BD
:105A90002173E989E181288A0090EB896888696926
:105AA000029A3BE00121F3E70CA8009001AB2246EB
:105AB00029463046FFF7D8FB6AE030780A2800D044
:105AC000FFDFADF80490ADF830704CB3A989618167
:105AD000A4F810A0A4F80EA084F80C8058E020E0F0
:105AE00002E030E038E041E030780B2800D0FFDF02
:105AF000288AADF830701230ADF8040084B104216A
:105B00002173A9896181E989E181298A2182688AD1
:105B100000902B8A688804F11202696900F0D9F9B3
:105B200036E030780C2800D0FFDFADF80490ADF8F7
:105B3000307044B305212173A4F80AA0A4F80EA084
:105B4000A4F810A024E00CA8009001AB224629463E
:105B50003046FFF7DDFA1BE00CA8009001AB2246AF
:105B600029463046FFF737FC12E00DE00B203B21C1
:105B7000ADF80400ADF8301034B1A4F80680A4F8F4
:105B800008A084F80AA003E01299088014E0FFDF5F
:105B90001299BDF80400088074B1BDF8300020806F
:105BA000BDF804006080287A032805D0102803D0AF
:105BB000112801D086F800A013B00020BDE8F08FB6
:105BC0002DE9FC4156880F46804615460521304692
:105BD00009F049F9040000D1FFDFA41DCDE90064FC
:105BE0002B463A464046696804F05FFCBDE8FC81FC
:105BF00070B50D46052109F036F9040000D1FFDF2C
:105C00002946A01DBDE8704004F063BA70B50D468A
:105C1000052109F028F9040000D1FFDF2946A01D65
:105C2000BDE8704004F088BA2DE9F0438DB00D4610
:105C30001446814607A9FFF786FC002814D14FF6C9
:105C4000FF7601274FF420588CB103208DF8000017
:105C50001020ADF8140008A8069008AA204605A94F
:105C60000AF0DFFD78B107200DB0BDE8F083082011
:105C7000ADF80C508DF812708DF80000ADF80E6084
:105C8000ADF810800CE00798A1780171218841805F
:105C90008DF81270ADF80C50ADF81080ADF80E60B4
:105CA0006A4602214846079BFFF765FCDCE708B51A
:105CB00001228DF8022042F60202ADF800200A46C9
:105CC00003236946FFF7CDFC08BD08B501228DF816
:105CD000022042F60302ADF800200A46042369467A
:105CE000FFF7BFFC08BD00B587B079B102228DF87F
:105CF00000200A88ADF80C204988ADF80E1000236A
:105D00006A460521FFF737FC07B000BD1020FBE70E
:105D100009B10723A5E40720704770B588B00D4688
:105D20001446064607A9FFF70EFC00280ED17CB1E9
:105D30000620ADF80C508DF80000ADF80E40079B22
:105D40006A4608215C803046FFF715FC08B070BD3C
:105D500005208DF80000ADF80C50F0E700B587B0D5
:105D600059B107238DF80030ADF80C2004910023C1
:105D70006A460921FFF7FFFBC6E71020C4E770B5AC
:105D800088B00C460646002507A9FFF7DCFB002873
:105D9000DCD107980121801D04F0C6F99CB121785F
:105DA000062921D2DFE801F0200505160318801E20
:105DB00080B2C01EE28880B20AB1A3681BB18242E1
:105DC00003D90C20C2E71020C0E7042904D0A08822
:105DD00050B901E00620B9E7012913D0022905D006
:105DE00004291CD005292AD00720AFE709208DF807
:105DF00000006088ADF80C00E088ADF80E00A068E7
:105E0000049023E00C208DF800006088ADF80C00B1
:105E1000E088ADF80E00A0680A25049016E00D2079
:105E20008DF800006088ADF80C00A088ADF80E0079
:105E3000E088ADF81000A0680B25059006E00E2064
:105E40008DF8000060788DF80C000C256A46294614
:105E50003046079BFFF78FFB78E700B587B00F222E
:105E60008DF80020ADF80C1000236A461946FFF7A4
:105E700082FB49E700B587B071B102228DF800209E
:105E80000A88ADF80C204988ADF80E1000236A4648
:105E90000621FFF770FB37E7102035E770B588B0B3
:105EA000064601200D46ADF80C108DF800000146A5
:105EB00000236A463046FFF75EFB040008D12946FE
:105EC000304601F02EFA0021304601F057FA204604
:105ED0003CE7F8B51C4615460E46069F09F026F924
:105EE0002346FF1DBCB231462A46009408F03EFD11
:105EF000F8BD000018B18178012938D101E01020E7
:105F00007047018842F60112881A914231D018DC9C
:105F100042F60102A1EB020091422AD00CDC41B30F
:105F2000B1F5C05F25D06FF4C050081821D0A0F59E
:105F30007060FF381BD11CE001281AD002280AD15A
:105F400017E0B0F5807F14D008DC012811D00228BA
:105F50000FD003280DD0FF2809D10AE0B0F5817FCA
:105F600007D0A0F58070033803D0012801D00020AD
:105F700070470F2070470B2826D008DC1BD2DFE8C3
:105F800000F01C2025251A25292325271E0011286D
:105F90001CD008DC0C2817D00D281DD00F2815D0D8
:105FA000102808D110E0822809D0842810D0852834
:105FB00010D0872812D0032070470020704705209A
:105FC000704743F203007047072070470F20704767
:105FD00004207047062070470C2070474FF4505043
:105FE000704708280DD2DFE800F00406040C0C0806
:105FF0000C0A0020704711207047072070470820C6
:1060000070470320704738B50C46050041D06946FB
:10601000FEF7D0FA002819D19DF80010607861F3DE
:10602000020060706946681CFEF7C4FA00280DD1B2
:106030009DF80010607861F3C5006070A978C1F325
:106040004101012903D0022905D0072038BD21785C
:1060500021F0200102E0217841F020012170410768
:1060600004D0A978C90861F386106070607810F0D8
:10607000380F07D0A978090961F3C710607010F0D4
:10608000380F02D16078400603D5207840F04000F8
:106090002070002038BD70B50446002008801546E9
:1060A0006068FFF7B0FF002816D12089A1898842D7
:1060B00011D860688078C0070AD0B1F5007F0AD88F
:1060C00040F20120B1FBF0F200FB1210288007E043
:1060D000B1F5FF7F01D90C2070BD01F201212980AB
:1060E000002070BD10B50478137864F300031370BA
:1060F0000478640864F3410313700478A40864F31B
:10610000820313700478E40864F3C3031370047803
:10611000240964F3041313700478640964F34513C9
:1061200013700078800960F38613137031B108781A
:10613000C10701D1800701D5012000E0002060F3F4
:10614000C713137010BD4278530702D002F0070343
:1061500006E012F0380F02D0C2F3C20300E00123C0
:106160004A7863F302024A70407810F0380F02D088
